:1000000012C05CC094C028C027C026C025C024C030
:1000100023C022C021C020C01FC01EC01DC01CC0E4
:100020001BC01AC019C011241FBECFEDCDBF10E0F8
:10003000A0E6B0E0EEE3F2E003C0C89531960D9281
:10004000A036B107D1F710E0A0E6B0E001C01D92E4
:10005000A237B107E1F790C0D3CF88E180936B005E
:1000600028EE33E030936F0020936E0042E350E0BF
:10007000509371004093700010926800BB9ABC9A34
:100080008FB5826A8FBD8EB590916B00892B8EBD26
:1000900035BD24BD84EF91E09BBD8ABD59BD48BDEF
:1000A0008A98929A8B98939A85B78A6085BF8BB706
:1000B000806C8BBFD198D99A789408951F920F9233
:1000C0000FB60F9211248F939F93AF93BF9380919C
:1000D000600090916100A0916200B0916300880F70
:1000E000991FAA1FBB1F8093600090936100A0938B
:1000F0006200B0936300C99B11C080916000909131
:100100006100A0916200B091630081608093600003
:1001100090936100A0936200B0936300BF91AF9190
:100120009F918F910F900FBE0F901F9018951F9267
:100130000F920FB60F9211248F939F93AF93BF939B
:100140008091600090916100A0916200B091630085
:100150008093640090936500A0936600B09367005D
:1001600081E080936800BF91AF919F918F910F9034
:100170000FBE0F901F90189570DF40916E00509148
:100180006F00609170007091710080916800882309
:10019000E1F38091640090916500A0916600B091B8
:1001A0006700282F392F8091640090916500A091FD
:1001B0006600B09167008A2F9B2FAA27BB278F70FC
:1001C000907083309105B9F08430910531F1029738
:1001D00099F54217530720F4242F352F2150304032
:1001E00039BD28BD952F842F969587959BBD8ABDD7
:1001F000732F622F21C02617370720F4262F372FA1
:100200002F5F3F4F35BD24BD932F822F9695879545
:100210009BBD8ABD532F422F0FC080916B00887FFA
:1002200080936B0080916B00922F9770892B809345
:0E0230006B0080916B008EBD10926800A6CF0F
:00000001FF
