:100000000C94C2010C94DD010C94DD010C94DD0113
:100010000C94DD010C94DD010C94DD010C94DD01E8
:100020000C94DD010C94DD010C94DD010C94DD01D8
:100030000C94DD010C945C160C94DD010C94DD0134
:100040000C94DD010C94DD010C94DD010C94DD01B8
:100050000C94DD010A53776565702D73746570200B
:100060003D20000A53776565703D706175736520AA
:100070003D20000A456E64207377656570203D2041
:10008000000A5374617274207377656570203D2097
:100090000053776565702D73746570203D200053A3
:1000A000776565703D7061757365203D2000456E14
:1000B00064207377656570203D200053746172740D
:1000C000207377656570203D20004D616477697A03
:1000D0006172645F7072657363616C6572206F75C5
:1000E00074206F662072616E67652E204D75737483
:1000F0002062653A2031202E2E2E20350050756C5E
:100100007362726565647465203D20004444532D1C
:10011000776F7264203D200046726F6D3A20004474
:1001200044532D6672657175656E746965203D2056
:10013000004672657175656E746965203D200047E3
:10014000726F74656E64696B6B656E0A0073673DF0
:100150002020202020202020537461727420737787
:100160006565702D66756E637469650A0A00737340
:100170003D28666C6F617429204672657175656EE5
:100180007469652D7374617070656E2062696A2090
:1001900073776565700A0073703D28696E74292055
:1001A000202050617573652074757373656E2032FD
:1001B000207374617070656E2062696A2073776560
:1001C00065700A0073323D28666C6F6174292045A2
:1001D000696E646672657175656E74696520766FA7
:1001E0006F722073776565700A0073313D28666C05
:1001F0006F617429205374617274667265717565DC
:100200006E74696520766F6F722073776565700A0A
:1002100000633D28696E7429202020207463637276
:10022000316220287072657363616C657229207673
:10023000616E204D616477697A61726420696E73C2
:1002400074656C6C656E0A006E3D28696E742920B9
:100250002020204F435231422076616E204D616450
:1002600077697A61726420696E7374656C6C656E0F
:100270000A006D3D28696E742920202020494352D0
:10028000312076616E204D616477697A61726420F5
:10029000696E7374656C6C656E0A00703D28666CDF
:1002A0006F617429202070756C7362726565647467
:1002B0006520696E7374656C6C656E2028696E20AC
:1002C00025290A00773D28666C6F61742920204437
:1002D00044532D6672657175656E746965776F72CA
:1002E0006420696E7374656C6C656E0A00643D28E9
:1002F000666C6F61742920204444532D66726571C9
:1003000075656E74696520696E7374656C6C656E75
:100310000A00663D28666C6F617429202075697437
:1003200067616E67732D6672657175656E74696558
:1003300020696E7374656C6C656E0A002D2D2D2D11
:100340002D2D2D2D2D2D2D2D2D2D2D2D2D2D2D2DDD
:100350002D2D2D2D2D2D0A0A000A47756C6C696E06
:10036000627572737469202D2052533233322D6DB1
:10037000656E753A0A00487A0046723A2000457266
:10038000723A200011241FBECFE5D8E0DEBFCDBFFA
:1003900011E0A0E6B0E0E4EBF3E402C005900D92BA
:1003A000A839B107D9F713E0A8E9B1E001C01D925F
:1003B000AD39B107E1F70C9448160C940000FC012C
:1003C00001C0319680818132E4F7882339F031967B
:1003D0008081882319F081321CF4F9CFE0E0F0E04D
:1003E000CF0108959C01E8E9FFE005C0CF01019726
:1003F000F1F72150304021153105C1F708959C01D6
:1004000095E005C0892F8A95F1F7215030402115DC
:100410003105C1F70895EF92FF920F931F93CF9389
:10042000DF938B018F9A9C014427552760E271EA84
:1004300087E090E00E948121790184EF91E0BC0186
:10044000069FC001079F900D169F900D1124B901C2
:100450000E946D218B01C0E0D0E009C0979AC701CE
:100460000E94FF019798C7010E94FF012196C017C3
:10047000D107A1F7E6E0CDB7DEB70C94CB21CF933F
:10048000DF93CCE2D1E0979ACE010E94FF019798CA
:10049000CE010E94FF012197C830D105A1F7DF915D
:1004A000CF910895EF92FF920F931F93CF93DF9315
:1004B000EC01042F6093CF028DE38093D00260E1C2
:1004C00077E2E1EDF2E015E040E090E3F92E8EE214
:1004D000E82E011729F4442309F4F192E19241E056
:1004E00020E030E004C0C61BD70B2F5F3F4FC6177C
:1004F000D707C8F32115310529F0822F805D81933C
:1005000041E003C0413009F4F192115031F0CB01C8
:100510006AE070E00E946D21DCCFE6E0CDB7DEB787
:100520000C94CB21A0E0B0E0E8E9F2E00C94AE211D
:10053000EC0101C0219688818132E4F3EE24FF248E
:1005400087012AE030E040E050E014C0C801B70164
:100550000E9442217B018C018D2D992787FD90956A
:10056000C097AA2797FDA095BA2FE80EF91E0A1F7B
:100570001B1F2196D8808D2D80538A3038F3C801F7
:10058000B701E7E0CDB7DEB70C94CA214F925F9276
:100590006F927F929F92AF92BF92CF92DF92EF9233
:1005A000FF920F931F93CF93DF93EC0104C0882336
:1005B00009F48FC0219688818033CCF3EE24FF2488
:1005C000870118C0C801B7012AE030E040E050E0E0
:1005D0000E9442217B018C018D2D992787FD9095EA
:1005E000C097AA2797FDA095BA2FE80EF91E0A1FFB
:1005F0001B1F2196D8808D2D80538A3018F38EE2F0
:10060000D81671F0AA24BB2465010F2EF0E04F2EFE
:10061000F0E05F2EF0E86F2EFFE37F2EF02D35C067
:10062000AA24BB2465010F2EF0E04F2EF0E05F2ED0
:10063000F0E86F2EFFE37F2EF02D21C0C601B5013B
:100640002AE030E040E050E00E9442215B016C0172
:1006500020E030E040E251E4C301B2010E945118B1
:100660002B013C01892D992787FD9095C097AA27DA
:1006700097FDA095BA2FA80EB91ECA1EDB1E998041
:100680002196892D80538A30C8F217FD05C0C80114
:10069000B7010E94011B14C0C801B70161707070DE
:1006A0008070907016950795F794E7946E297F29CE
:1006B000802B912B0E94011B9B01AC010E942418EE
:1006C0007B018C01D7FC0AC0C601B5010E94011B49
:1006D00019C060E070E080E090E01EC0C601B50186
:1006E0006170707080709070D694C794B794A7941E
:1006F0006A297B298C299D290E94011B9B01AC0141
:100700000E942418A30192010E946F199B01AC0161
:10071000C801B7010E942418DF91CF911F910F915A
:10072000FF90EF90DF90CF90BF90AF909F907F9021
:100730006F905F904F9008950F931F93CF93DF9327
:100740008BB388678BBB81B3877981BB82B38866A3
:1007500082BB82E390E00E94FF018FEF80937F03D2
:10076000C3E0D0E0CE018350182F8BB321E030E0FE
:100770000C2E02C0220F331F0A94E2F7022F922F91
:10078000909589238BBB84E690E00E94FF01839BB8
:100790001DC0859902C0146007C0869902C0186008
:1007A00003C0B59903C01C6010937F038BB3802BEB
:1007B0008BBB10917F031F3F71F484E690E00E9491
:1007C000FF012196C730D10511F1CCCF10937F03E3
:1007D0008BB3802B8BBBE12FFF27EA5AFE4F808122
:1007E00080937F0364E170E088EE93E00E940B0247
:1007F00020917F03253741F0243631F080E293E0E9
:100800009093580380935703822F992708C080E262
:1008100093E090935803809357038FEF90E0DF911C
:10082000CF911F910F910895CF93DF938BB387786A
:100830008BBBC0E0D0E005C0219684E690E00E942A
:10084000F201B59BF9CF8BB388678BBBCE01DF91EB
:10085000CF910895982F990F981718F488E590E094
:10086000089587E390E00895282FEDE5F3E0908167
:10087000990F9083818187FF02C0916090833196A8
:1008800083E0E436F80799F780916403880F822BA0
:1008900080936403089510929C0210929D021BB8ED
:1008A00088E98AB98EE880BD10BC89E189B90895CC
:1008B0005D9BFECF8FE48CB95D9BFECF8BE48CB942
:1008C0005D9BFECF8AE08CB908955D9BFECF85E4E9
:1008D0008CB95D9BFECF82E78CB95D9BFECF82E732
:1008E0008CB95D9BFECF8AE08CB90895FC0104C0F1
:1008F0005D9BFECF81918CB980818823C9F70895D3
:100900009C01F9012F5F3F4F9491892F81508C3FBB
:1009100020F45D9BFECF9CB9F4CF0895892B61F440
:100920008EE793E00E94800488E991E00E947604BB
:100930005D9BFECF8AE08CB908950F931F93CF93F0
:10094000DF93EC01892B41F060E020E137E240E0E9
:1009500050E010E000E00AC05D9BFECF80E38CB960
:100960005D9BFECF28C06F5FC21BD30BCE01AA27B1
:10097000BB2782179307A407B507A8F7161634F408
:100980005D9BFECF605D6CB901E006C0013021F4D3
:100990005D9BFECF80E38CB91F5F153054F4CA0114
:1009A000B9012AE030E040E050E00E94812160E09F
:1009B000DDCF5D9BFECF80E28CB9DF91CF911F919F
:1009C0000F910895A1E0B0E0E8EEF4E00C94AE21C0
:1009D0007B018C01611571058105910541F080E075
:1009E00020E03AEC4AE95BE3DD2419820CC05D9B10
:1009F000FECF80E38CB95D9BFECF2AC08F5FE21AE9
:100A0000F30A040B150BE216F30604071507B0F7FB
:100A100018163CF45D9BFECF805D8CB981E0898324
:100A200007C0E981E13021F45D9BFECF80E38CB902
:100A3000D394F9E0FD1554F0CA01B9012AE030E081
:100A400040E050E00E94812180E0DDCF5D9BFECF41
:100A50008EE28CB9E7E021960C94CA21683E23E02F
:100A6000720720E0820720E0920728F520E005C009
:100A70002F5F645670408040904064367105810558
:100A80009105B0F75D9BFECF205D2CB920E005C03D
:100A90002F5F6A507040804090406A307105810538
:100AA0009105B0F75D9BFECF205D2CB95D9BFECF1D
:100AB000862F805D8CB90895AF92BF92CF92DF925E
:100AC000EF92FF920F931F937B018C010E94A0165F
:100AD0005B016C0197FD03C00E94011B14C0617093
:100AE000707080709070A601950156954795379566
:100AF0002795622B732B842B952B0E94011B9B0146
:100B0000AC010E9424189B01AC01C801B7010E94EE
:100B1000F3177B018C01C601B5010E94E20420E0BD
:100B200030E04AE754E4C801B7010E9451180E941E
:100B3000A0160E942E051F910F91FF90EF90DF905D
:100B4000CF90BF90AF900895AD9A95B3907F95BB2D
:100B500095B382958F70982B95BB84E08A95F1F7B9
:100B6000AD9808951F93182F613029F4853B09F43F
:100B700014EEAC9A01C0AC98812F0E94A40594E0B9
:100B8000892F8A95F1F7AD9A85B3807F85BB85B3B0
:100B90001F70812B85BB9A95F1F7AD9885ED8A95ED
:100BA000F1F71F91089560E081E00E94B20582E0B4
:100BB00090E00E94F201089560E082E00E94B20598
:100BC00082E090E00E94F2010895CF93DF93EC0160
:100BD00004C061E00E94B205219688818823C9F78C
:100BE000DF91CF910895CF93DF93EC0103C061E0D3
:100BF0000E94B205FE01219684918823C1F7DF91FE
:100C0000CF910895962FE6E6F1E0E80FF11D915897
:100C1000808160E0890F0E94B20508951F93E82F3C
:100C2000FF27EA59FE4F808160E080580E94B2059C
:100C300010E061E080E20E94B2051F5F1431C9F745
:100C40001F910895CF93DF93962FEA01E82FFF2796
:100C5000EA59FE4F9158808160E0890F0E94B205E9
:100C600004C061E00E94B205219688818823C9F7FB
:100C7000DF91CF9108950F931F93082F84B38F6353
:100C800084BBA59AA49AAD9AAC9888E190E00E94A2
:100C9000F20180E30E94A40586E090E00E94F20148
:100CA00080E30E94A40510E0812F8A95F1F780E38C
:100CB0000E94A4051A95F1F788E20E94A40560E05D
:100CC00088E20E94B20560E088E00E94B2050E94BE
:100CD000D30560E086E00E94B20560E0802F0E94AC
:100CE000B2051F910F910895EF92FF921F93182F55
:100CF0006AE00E946121E82E61E0805D0E94B205F9
:100D00008AE0E89E700111241E1961E0812F805D48
:100D10000E94B2051F91FF90EF900895A0E0B0E00F
:100D2000E4E9F6E00C94AE21EC01D62E00E117E2E6
:100D3000B5E0EB2EFF24DE1461F4FF2021F461E026
:100D400080E30E94B20561E08EE20E94B205A1E05C
:100D5000FA2E80E090E003C0C01BD10B0196C017B3
:100D6000D107D0F3009739F061E0805D0E94B205B1
:100D7000F1E0FF2E07C081E0F81621F461E080E386
:100D80000E94B205EA9439F0C8016AE070E00E945E
:100D90006D218B01D0CFE7E0CDB7DEB70C94CA212F
:100DA000A1E0B0E0E6EDF6E00C94AA217B018C0115
:100DB00080E0A12C2AECB22E2AE9C22E2BE3D22EFF
:100DC0009AE0992E198205C08F5FEA18FB080C097A
:100DD0001D09EA14FB040C051D05B0F718163CF4B8
:100DE00061E0805D0E94B20581E0898307C0E981EE
:100DF000E13021F461E080E30E94B2059A94F1E0D1
:100E0000F91564F4C601B5012AE030E040E050E095
:100E10000E94812159016A0180E0DBCF61E08E2DC3
:100E2000805D0E94B205EBE021960C94C621EF9202
:100E3000FF920F931F937B018C01685E734080408B
:100E4000904078F580E009C08F5F2CE93FEF4FEFCD
:100E50005FEFE20EF31E041F151F34E6E316F104E4
:100E60000105110588F761E0805D0E94B20580E010
:100E700009C08F5F26EF3FEF4FEF5FEFE20EF31EEB
:100E8000041F151F3AE0E316F1040105110588F768
:100E900061E0805D0E94B20561E08E2D805D0E9460
:100EA000B2051F910F91FF90EF900895AF92BF92FE
:100EB000CF92DF92EF92FF920F931F937B018C01F1
:100EC0000E94A0165B016C0197FD03C00E94011BEC
:100ED00014C06170707080709070A6019501569575
:100EE000479537952795622B732B842B952B0E9462
:100EF000011B9B01AC010E9424189B01AC01C8019D
:100F0000B7010E94F3177B018C01C601B5010E9455
:100F1000D00661E08EE20E94B20520E030E04AE7B0
:100F200054E4C801B7010E9451180E94A0160E9403
:100F300017071F910F91FF90EF90DF90CF90BF9018
:100F4000AF9008950E94D30589E793E00E94F305CE
:100F500060918F037091900380919103909192031F
:100F60000E94560786E793E00E94F30540E650E0B2
:100F700061E082E00E9422066091A0027091A102CD
:100F80008091A2029091A3020E94560761E085E23F
:100F90000E94B20580917B018034F9F0813460F4C5
:100FA0008D3391F08E3318F48C3319F50AC08E33DB
:100FB00071F08F33F1F40EC0813491F08234C9F4B2
:100FC00012C045E650E011C041E750E00EC04EE7C8
:100FD00050E00BC042E950E008C046EA50E005C0CE
:100FE00049EB50E002C04BEC50E061E083E00E942E
:100FF00022064CED50E061E084E00E942206089554
:10100000A0E0B0E0E6E0F8E00C94AD21C82EEB01E2
:10101000609193037091940380919503909196034E
:1010200020E030E04AE754E40E946F199B01AC01D4
:1010300060E074E284EF99E40E946F197B018C01F7
:1010400020E03FEF4FE757E40E945F1A18165CF468
:101050000F2EF0E0EF2EFFEFFF2EFFE70F2FF7E44C
:101060001F2FF02D14C020E030E048EC53E4C801FD
:10107000B7010E94CB1A882354F40F2EF0E0EF2E14
:10108000F0E0FF2EF8EC0F2FF3E41F2FF02DC80136
:10109000B7010E94A016DC01CB017C0160E971E080
:1010A0000E946D218B01DD24C3FE02C0C49A01C0E1
:1010B000C498C8010E94FF01C398C8010E94FF01A3
:1010C000C39AC7010E94FF01D39484E0D81611F09F
:1010D000CC0CEACFDD24D7FF02C0C49A01C0C4986B
:1010E000C8010E94FF01C398C8010E94FF01C39A72
:1010F000C7010E94FF01D39480E1D81619F0CC0FEC
:10110000DD1FE9CFC298C8010E94FF01C29AC70142
:10111000880F991F0E94FF01E8E0CDB7DEB70C945D
:10112000C9219C01C69A949885E08A95F1F740E020
:1011300037FD02C0C79801C0C79A95E0892F8A95EC
:10114000F1F7C698892F8A95F1F7C69A4F5F40311B
:1011500019F0220F331FECCF949A9A95F1F7089566
:10116000EF92FF920F931F937B018C018091770385
:1011700090917803892B39F480E094E09093780380
:101180008093770304C01092780310927703C7010D
:10119000907020917703309178033063822B932BEA
:1011A0000E949108BB27A12F902F8F2D9070209126
:1011B0007703309178033162822B932B0E94910840
:1011C000C801AA27BB27907020917703309178033C
:1011D0003263822B932B0E949108812F9927AA2793
:1011E000BB27907020917703309178033362822B74
:1011F000932B0E94910880917703909178038050FF
:10120000944019F480E098E602C080E090E60E94E5
:1012100091081F910F91FF90EF900895EF92FF9228
:101220000F931F937B018C01CB01907098610E94FA
:101230009108BB27A12F902F8F2D907099600E944D
:1012400091087801002711278FEFE822FF24C701BA
:101250009A610E94910880E09BE00E9491081F9192
:101260000F91FF90EF90089527E73CEC4BE253E499
:101270000E94511820E030E040E05FE30E94241813
:101280000E94A01660936F037093700380937103A4
:10129000909372030E94B0080895A4E0B0E0E3E5E3
:1012A000F9E00C94A5216B017C0129833A834B83DF
:1012B0005C838FEF8BBBC1980F2EF0E04F2EF0E0D8
:1012C0005F2EF0E86F2EFFE37F2EF02D4092590342
:1012D00050925A0360925B0370925C0320E030E00E
:1012E00040E050E0C701B6010E94291A882309F4A2
:1012F000BBC220E836E948E15BE4C701B6010E94C1
:101300005F1A1816ACF480E896E9A8E1BBE4809374
:101310008F0390939003A0939103B09392038093D3
:10132000930390939403A0939503B093960312C0F4
:1013300020E836E948E95AE4C701B6010E945F1A7D
:101340001816FCF4C0929303D0929403E092950394
:10135000F0929603609193037091940380919503AA
:10136000909196030E94340983E08BBB0E94A207F0
:101370004092590350925A0360925B0370925C034F
:1013800075C220E034E244EF59E4C701B6010E947F
:101390005F1A18160CF07AC08090A0029090A102FB
:1013A000A090A202B090A30220E030E040EF51E410
:1013B000C501B4010E94CB1A8823D4F4A701960179
:1013C000C701B6010E94241860939303709394039D
:1013D0008093950390939603609193037091940387
:1013E00080919503909196030E94340984E023C074
:1013F00020E030E04CE852E4C501B4010E945F1ADD
:1014000018163CF5A7019601C701B6010E942418E1
:101410006093930370939403809395039093960342
:10142000609193037091940380919503909196033A
:101430000E94340985E08BBB80E090E0A0E0B0E43E
:101440008093590390935A03A0935B03B0935C037A
:101450000BC2C0929303D0929403E0929503F09252
:1014600096036091930370919403809195039091FA
:1014700096030E94340983E08BBB4092590350923B
:101480005A0360925B0370925C03EEC129E231E57E
:101490004EEF52E4C701B6010E945F1A18160CF015
:1014A00047C081E090E09093A5028093A402A70139
:1014B000960169817A818B819C810E946F190E94BB
:1014C000A016709367036093660300916603109102
:1014D0006703B801882777FD8095982F0E94011B2C
:1014E00017FF06C020E030E040E857E40E942418CF
:1014F000A70196010E94511860939303709394037F
:10150000809395039093960300916603109167036F
:10151000B801882777FD8095982F0E94011B17FF3F
:101520000BC120E030E040E857E40E94241804C1D9
:1015300020E030E040E051E4C701B6010E945118BC
:101540004B015C0129E231E54EEF52E40E945F1A43
:1015500018168CF482E090E09093A5028093A40288
:101560000F2EF0E0CF2EF0E0DF2EF0E0EF2EF1E4D2
:10157000FF2EF02D9DC020E030E040E852E4C7018E
:10158000B6010E9451184B015C0129E231E54EEF92
:1015900052E40E945F1A18168CF483E090E0909356
:1015A000A5028093A4020F2EF0E0CF2EF0E0DF2EF4
:1015B000F0E8EF2EF2E4FF2EF02D7AC020E030E0CC
:1015C00040E853E4C701B6010E9451184B015C0189
:1015D00029E231E54EEF52E40E945F1A18168CF4AE
:1015E00084E090E09093A5028093A4020F2EF0E097
:1015F000CF2EF0E0DF2EF0E8EF2EF3E4FF2EF02DFB
:1016000057C020E030E040E854E4C701B6010E9432
:1016100051184B015C0129E231E54EEF52E40E9482
:101620005F1A18168CF485E090E09093A5028093E1
:10163000A4020F2EF0E0CF2EF0E0DF2EF0E8EF2E28
:10164000F4E4FF2EF02D34C085E090E09093A502E5
:101650008093A4028FEF9FEF9093670380936603BC
:1016600020E03FEF4FE757E4C501B4010E94511855
:1016700060939303709394038093950390939603E0
:101680000091660310916703B801882777FD809564
:10169000982F0E94011B17FF06C020E030E040E8B1
:1016A00057E40E94241820E030E040E854E442C0AF
:1016B000A501940169817A818B819C810E946F19B7
:1016C0000E94A016709367036093660300916603FF
:1016D00010916703B801882777FD8095982F0E94A5
:1016E000011B17FF06C020E030E040E857E40E94ED
:1016F0002418A50194010E945118609393037093DC
:101700009403809395039093960300916603109140
:101710006703B801882777FD8095982F0E94011BE9
:1017200017FF06C020E030E040E857E40E9424188C
:10173000A70196010E9451186093590370935A03B0
:1017400080935B0390935C03609193037091940387
:1017500080919503909196030E94340984E190E072
:101760000E94F201C19A84EF91E00E94F20160911F
:10177000A4027091A50284E00E94000861E070E07C
:1017800082E00E940008C090A002D090A102E090E8
:10179000A202F090A3020091660310916703B801C2
:1017A000882777FD8095982F0E94011B17FF06C0A0
:1017B00020E030E040E857E40E9424189B01AC018F
:1017C000C701B6010E94511820E030E048EC52E415
:1017D0000E946F1920E030E040E05FE30E9424188F
:1017E0000E94A01670938103609380032091800370
:1017F000309181038091660390916703019782176E
:10180000930730F48091660390916703019708C0B5
:101810008091800390918103892B31F481E090E0E5
:101820009093810380938003809180039091810342
:101830000197909381038093800360916603709178
:1018400067036150704083E00E940008609180034C
:101850007091810382E00E94000884E690E00E947B
:10186000F2018BB3887F8BBB0E94A207E0E1249634
:101870000C94C1218F929F92AF92BF92CF92DF9230
:10188000EF92FF920F931F934B015C0169017A0164
:1018900020E030E040E050E00E94291A882321F443
:1018A0008FEF8BBBC198EEC020E836E948E15BE4DE
:1018B000C501B4010E945F1A1816CCF480E896E9BD
:1018C000A8E1BBE480938F0390939003A0939103CE
:1018D000B09392031092A5021092A40280939303F6
:1018E00090939403A0939503B093960316C020E0C1
:1018F00034E244EF59E4C501B4010E945F1A18169E
:10190000CCF41092A5021092A402809293039092BC
:101910009403A0929503B092960360919303709103
:10192000940380919503909196030E94340983E07B
:101930008BBBA8C020E030E046E954E4C501B40107
:101940000E945F1A18166CF4A5019401C701B60134
:101950000E946F190E94A01670936703609366033C
:101960000AC020E030E040EF52E4C501B4010E941B
:101970005F1A1816B4F40091660310916703B8015A
:10198000882777FD8095982F0E94011B17FF06C0BE
:1019900020E030E040E857E40E942418A5019401BB
:1019A0005DC020E030E040E050E4C501B4010E9499
:1019B0005F1A1816E4F40091660310916703B801EA
:1019C000882777FD8095982F0E94011B6B017C0171
:1019D00017FF08C020E030E040E857E40E942418D8
:1019E0006B017C0120E030E040E852E42FC02AE0A7
:1019F00037ED43E25CE3C501B4010E94CB1A8823B2
:101A000054F40F2EFAE08F2EF7ED9F2EF3E2AF2E57
:101A1000FCE3BF2EF02D0091660310916703B8011F
:101A2000882777FD8095982F0E94011B6B017C0110
:101A300017FF08C020E030E040E857E40E94241877
:101A40006B017C0120E030E040E854E4C501B401C2
:101A50000E9451189B01AC01C701B6010E945118A8
:101A600060939303709394038093950390939603EC
:101A700060919303709194038091950390919603E4
:101A80000E9434090E94A2071F910F91FF90EF90CE
:101A9000DF90CF90BF90AF909F908F90089587B3C5
:101AA0008E6187BB88B38C6188BB11BA88E682BB24
:101AB000BD98C59A8FEF8ABB88E78BBB8CEC9CECFA
:101AC000ACECBCE480936F0390937003A09371031C
:101AD000B0937203BF9ABE9A8C9A949A80E090E079
:101AE000A8E4B2E48093A0029093A102A093A20282
:101AF000B093A30284E690E00E94F20180E098EFA8
:101B00000E949108109278031092770360916F03FE
:101B10007091700380917103909172030E94B008DC
:101B200080E090EC0E94910880E090EB0E94910888
:101B30000E944B048FE00E943B068EED90E00E94D5
:101B4000E5054CE751E061E082E00E9422067894CE
:101B5000C19A4CEE50E061E083E00E94220680E0F2
:101B600090E0A0E0B0E080938F0390939003A09367
:101B70009103B09392038CE380937B0181E090E02A
:101B8000909374038093730384EF91E00E94F201B9
:101B900060918F03709190038091910390919203D3
:101BA0002BE230E54EEF5AE40E944D098DEA92E0B7
:101BB00090935603809355031092AD0284EF91E009
:101BC000909358038093570388E893E10E94F201B1
:101BD00008952F923F924F925F926F927F928F92D1
:101BE0009F92AF92BF92CF92DF92EF92FF920F93AC
:101BF0001F9359016A0117012801C1982BB3236073
:101C00002BBB27E73CEC4BE253E40E94511820E049
:101C100030E040E05FE30E9424180E94A0167B01A0
:101C20008C0127E73CEC4BE253E4C601B5010E946E
:101C3000511820E030E040E05FE30E9424180E9449
:101C4000A0163B014C012AE037ED43E25CE3C20100
:101C5000B1010E94CB1A882354F40F2EFAE02F2EE4
:101C6000F7ED3F2EF3E24F2EFCE35F2EF02D27E73A
:101C70003CEC4BE253E4C201B1010E94511820E058
:101C800030E040E05FE30E9424180E94A0165B0150
:101C90006C01C801B7010E94B008E614F7040805FA
:101CA000190500F5EA0CFB1C0C1D1D1DC801B70130
:101CB0000E94B008EA0CFB1C0C1D1D1DD801C701B9
:101CC0008A199B09AC09BD0986159705A805B905B0
:101CD00070F4ECCFEA18FB080C091D09C801B70124
:101CE0000E94B0086E147F048006910698F30E944B
:101CF0003F021F910F91FF90EF90DF90CF90BF9028
:101D0000AF909F908F907F906F905F904F903F909B
:101D10002F90089589E593E00E9480048CE393E07E
:101D20000E94800482E193E00E9480048DEE92E0A4
:101D30000E94800484EC92E00E9480048BE992E08F
:101D40000E94800482E792E00E94800488E492E08E
:101D50000E94800481E192E00E9480048AEE91E07A
:101D60000E94800484EC91E00E94800487E991E065
:101D70000E9480048EE691E00E9480048DE491E050
:101D80000E94800408950F931F9380917F038436EF
:101D900009F451C0853721F0853409F0D5C0A8C0B9
:101DA00060919303709194038091950390919603B1
:101DB00020E030E040E85FE30E9424186093930342
:101DC000709394038093950390939603609193038B
:101DD0007091940380919503909196030E94340929
:101DE0006091930370919403809195039091960371
:101DF0002091590330915A0340915B0350915C0349
:101E00000E946F1960938F037093900380939103E6
:101E1000909392030E94A2078091570390915803D8
:101E20000E94F2012091570330915803223031056E
:101E300008F490C04AC0609193037091940380911C
:101E400095039091960320E030E040E85FE30E9424
:101E5000F317609393037093940380939503909387
:101E600096036091930370919403809195039091F0
:101E700096030E94340960919303709194038091BA
:101E80009503909196032091590330915A03409104
:101E90005B0350915C030E946F1960938F037093F2
:101EA000900380939103909392030E94A2078091E4
:101EB0005703909158030E94F201209157033091EB
:101EC00058032230310508F445C0C90163E0880F8A
:101ED000991F6A95E1F7220F331F820F931F6FE05E
:101EE00070E00E946D21709358036093570332C0D5
:101EF0000DEA12E0C8010E94C60260938F0370933E
:101F00009003809391039093920360918F0370915B
:101F1000900380919103909192032BE230E54EEF74
:101F20005AE40E944D0910935603009355031092F2
:101F3000AD0280E293E0909358038093570388ECBE
:101F400090E00E94F20106C080E293E09093580373
:101F5000809357031F910F910895CF92DF92EF92D4
:101F6000FF920F931F9380917F03843611F1853781
:101F700021F0853409F079C040C0C090A002D09013
:101F8000A102E090A202F090A3022DEC3CEC45EC03
:101F900052E4C701B6010E94CB1A88230CF065C039
:101FA00020E030E040E85FE3C701B6010E9424185A
:101FB0001BC0C090A002D090A102E090A202F090BD
:101FC000A3022DEC3CEC4CE85FE3C701B6010E9494
:101FD0005F1A18160CF049C020E030E040E85FE3DB
:101FE000C701B6010E94F3176093A0027093A1028B
:101FF0008093A2029093A30238C00DEA12E0C801B8
:102000000E94C6026B017C016093A0027093A10242
:102010008093A2029093A30210935603009355035A
:102020001092AD022DE73FEF47EC52E40E945F1A99
:1020300018162CF48DE79FEFA7ECB2E40EC02FE644
:1020400032E143E85AE3C701B6010E94CB1A882364
:1020500064F48FE692E1A3E8BAE38093A002909340
:10206000A102A093A202B093A30260918F0370918A
:102070009003809191039091920320E836E948E91A
:102080005AE40E945F1A18160CF4FAC060918F038C
:1020900070919003809191039091920320E034E23B
:1020A00044EF59E40E945F1AC090A002D090A102B0
:1020B000E090A202F090A30218160CF082C020E07B
:1020C00030E040EF51E4C701B6010E94CB1A8823EB
:1020D00004F560918F03709190038091910390912A
:1020E00092039B01AC010E942418609393037093A8
:1020F000940380939503909396036091930370915A
:10210000940380919503909196030E94340984E092
:1021100029C020E030E04CE852E4C701B6010E943B
:102120005F1A18166CF560918F037091900380917F
:102130009103909192039B01AC010E94241860933B
:102140009303709394038093950390939603609107
:1021500093037091940380919503909196030E944C
:10216000340985E08BBB80E090E0A0E0B0E4809390
:10217000590390935A03A0935B03B0935C037AC016
:1021800080918F0390919003A0919103B09192035D
:102190008093930390939403A0939503B093960335
:1021A00060919303709194038091950390919603AD
:1021B0000E94340983E08BBB80E090E0A0E8BFE39D
:1021C000D6CF0091660310916703B801882777FD89
:1021D0008095982F0E94011B17FF06C020E030E079
:1021E00040E857E40E9424189B01AC01C701B601E6
:1021F0000E94511820E030E048EC52E40E946F1930
:1022000020E030E040E05FE30E9424180E94A01626
:102210007093810360938003209180033091810348
:10222000809166039091670301978217930730F4BA
:102230008091660390916703019708C080918003A5
:1022400090918103892B31F481E090E09093810398
:1022500080938003809180039091810301979093F4
:10226000810380938003609180037091810382E0F9
:102270000E9400080E94A20788EC90E00E94F201F0
:102280001F910F91FF90EF90DF90CF900895EF9204
:10229000FF920F931F9390917F039A30B0F4E091D7
:1022A0005503F0915603905D9083E0915503F091B2
:1022B00056033196F0935603E093550331971182FC
:1022C00080917F0361E0805D2CC0933469F19D347F
:1022D00019F09E32B1F513C080917B018D3331F43A
:1022E0000E9414040C9738F080917B018F5F8093DB
:1022F0007B01833408F18CE380937B011DC0E09166
:102300005503F09156039083E0915503F0915603E5
:102310003196F0935603E09355033197118261E0B3
:102320008EE20E94B2050AC08DEA92E090935603B5
:10233000809355031092AD020E94A20788EC90E0B2
:102340008FC080917B01803409F450C0813470F4D7
:102350008D33B1F08E3320F48C3309F07FC00DC083
:102360008E3389F08F3309F079C01EC0813409F4AF
:1023700049C0823409F072C055C00E94C30E6EC0BD
:102380000E94AD0F6BC0953409F068C00DEA12E0F1
:10239000C8010E94C60260938203709383038093F6
:1023A00084039093850310C0953409F057C00DEA5B
:1023B00012E0C8010E94C60260938B0370938C03E5
:1023C00080938D0390938E031093560300935503CF
:1023D0001092AD0280917B018F5F80937B010E9400
:1023E000A20788EC90E00E94F20138C09534B1F564
:1023F0000DEA12E0C8010E9492027093CE0260932F
:10240000CD02E2CF953451F50DEA12E0C8010E94E9
:10241000C60260937B0370937C0380937D0390934B
:102420007E03D2CF9534D1F4E0907B03F0907C030F
:1024300000917D0310917E0320918B0330918C03DA
:1024400040918D0350918E036091820370918303BC
:1024500080918403909185030E94E90D84E190E0CE
:102460000E94F2011F910F91FF90EF900895A0E05C
:10247000B0E0EDE3F2E10C94A92143E050E06EEF0F
:1024800070E088E991E00E94EB1D892B59F48FE3FD
:1024900091E00E9480048CE791E00E9476045D9BAD
:1024A000FECFECC390919901809198019D3309F082
:1024B000F2C2873509F4B8C08835ACF4863459F1D6
:1024C00087343CF4833409F4AAC2843409F0D9C3B4
:1024D00055C08E3409F43AC2803509F422C18D34D6
:1024E00009F0CFC3CAC18D3609F4C7C18E364CF48A
:1024F000843609F443C0863671F0833609F0C1C3CF
:102500008EC2803709F40DC1873709F48DC08E362D
:1025100009F0B7C31BC280919A0180538A30E8F456
:102520000E9458048AE991E00E94C60260938F03DA
:1025300070939003809391039093920360918F0323
:102540007091900380919103909192032BE230E57A
:102550004EEF5AE40E944D0996C381E391E00E9438
:10256000800460918F03709190038091910390910A
:1025700092030E945C055D9BFECF80C380919A010F
:1025800080538A3008F03FC00E945804C1988AE9FD
:1025900091E00E94C602609393037093940380932A
:1025A00095039093960360919303709194038091A7
:1025B0009503909196030E94340984E190E00E9473
:1025C000F201C19A88EC90E00E94F2016091A402AD
:1025D0007091A50284E00E94000861E070E082E052
:1025E0000E9400086091660370916703615070401B
:1025F00083E00E940008609180037091810382E073
:102600000E94000897C18FE191E00E9480046091D0
:1026100093037091940380919503909196030E9487
:102620005C055D9BFECF2AC380919A0180538A305E
:1026300008F068C00E9458048AE991E00E94920262
:102640007B018C010E94D30588E191E00E94F30593
:1026500060916F0370917003809171039091720388
:102660000E94D00642E051E061E082E00E94220632
:10267000C801B7010E94D00660916F03709170038A
:102680008091710390917203E616F7060807190707
:1026900058F5605071408040904060936F03709394
:1026A000700380937103909372030E94B00860914D
:1026B0006F03709170038091710390917203E6161D
:1026C000F7060807190708F035C1E3CF60507F4FC0
:1026D0008F4F9F4F60936F037093700380937103CC
:1026E000909372030E94B00860916F037091700321
:1026F00080917103909172036E157F058007910799
:1027000028F318C18CE091E00E94800460916F036F
:102710007091700380917103909172030E94E204A2
:10272000B2C280919A0180538A3008F095C08AE93C
:1027300091E00E94C6027B018C016093A00270931D
:10274000A1028093A2029093A3022DE73FEF47ECF2
:1027500052E40E945F1A18162CF48DE79FEFA7EC45
:10276000B2E40EC02FE632E143E85AE3C801B701F4
:102770000E94CB1A882364F48FE692E1A3E8BAE3BF
:102780008093A0029093A102A093A202B093A3020F
:10279000C090A002D090A102E090A202F090A3020B
:1027A0000091660310916703B801882777FD809533
:1027B000982F0E94011B17FF06C020E030E040E880
:1027C00057E40E9424189B01AC01C701B6010E9486
:1027D000511820E030E048EC52E40E946F1920E0EC
:1027E00030E040E05FE30E9424180E94A01670933E
:1027F0008103609380032091800330918103809155
:1028000066039091670301978217930730F48091D4
:10281000660390916703019708C0809180039091AF
:102820008103892B31F481E090E0909381038093C0
:10283000800380918003909181030197909381039D
:1028400080938003609180037091810382E00E94F5
:1028500000080E94A207ABC18DEF90E00E948004A7
:102860006091A0027091A1028091A2029091A302B6
:102870000E945C055D9BFECF01C280919A0180534E
:102880008A3008F05AC08AE991E00E94920270935F
:102890006703609366030E94580460916603709119
:1028A000670383E00E940008809093039090940354
:1028B000A0909503B0909603009166031091670372
:1028C000C091A402D091A502B801882777FD809518
:1028D000982F0E94011B6B017C0117FF08C020E0AC
:1028E00030E040E857E40E9424186B017C01BE01EF
:1028F000882777FD8095982F0E94011BD7FF06C07F
:1029000020E030E040E857E40E9424189B01AC012D
:10291000C701B6010E9451189B01AC01C501B40169
:102920000E946F1960938F037093900380939103BB
:10293000909392030E94A207A6C180916603909192
:1029400067039F938F9389E091E091C080919A01F2
:1029500080538A3008F05AC08AE991E00E949202BE
:102960008B010E9458048091660390916703801741
:10297000910730F4009166031091670301501040F5
:102980001093810300938003C0916603D091670385
:10299000B801882777FD8095982F0E94011B17FFAB
:1029A00006C020E030E040E857E40E94241820E010
:1029B00030E048EC52E40E9451187B018C01BE01CA
:1029C000882777FD8095982F0E94011BD7FF06C0AE
:1029D00020E030E040E857E40E9424189B01AC015D
:1029E000C801B7010E946F196093A0027093A10201
:1029F0008093A2029093A3020E94A2076091800399
:102A00007091810382E00E9400083DC180918003A3
:102A1000909181039F938F9382E291E028C08091EF
:102A20009A0180538A30D8F48AE991E00E94920298
:102A30009B01AC01CB010197059760F43093A5028F
:102A40002093A4026091A4027091A50284E00E94E8
:102A50000008ADC08AEC90E00E94800414C180910F
:102A6000A4029091A5029F938F9388E391E09F9396
:102A70008F930FEC12E01F930F930E94F91DC80172
:102A80000E9476048DB79EB706960FB6F8949EBF47
:102A90000FBE8DBFF8C0833709F0F3C080919A0153
:102AA0008D3309F0EEC0973609F495C0983634F4AA
:102AB000913359F0923309F0ABC02AC0903709F432
:102AC0004AC0933709F0A4C061C080919B01805334
:102AD0008A3068F48BE991E00E94C6026093820319
:102AE00070938303809384039093850360C08BEB82
:102AF00090E00E9480046091820370918303809132
:102B00008403909185030E945C055D9BFECFB6C057
:102B100080919B0180538A3068F48BE991E00E9498
:102B2000C60260938B0370938C0380938D03909304
:102B30008E033DC08EEA90E00E94800460918B037A
:102B400070918C0380918D0390918E030E945C059F
:102B50005D9BFECF93C080919B0180538A3048F4E7
:102B60008BE991E00E9492027093CE026093CD02B5
:102B70001EC08FE990E00E9480048091CD02909168
:102B8000CE020E949D045D9BFECF78C080919B0188
:102B900080538A3078F48BE991E00E94C6026093FA
:102BA0007B0370937C0380937D0390937E030E944C
:102BB000580469C081E990E00E94800460917B0321
:102BC00070917C0380917D0390917E030E945C054F
:102BD0005D9BFECF53C00E945804E0907B03F090B1
:102BE0007C0300917D0310917E0320918B03309133
:102BF0008C0340918D0350918E03609182037091FC
:102C0000830380918403909185030E94E90D3BC06A
:102C100081E890E00E9480046091820370918303B8
:102C200080918403909185030E945C0583E790E086
:102C30000E94800460918B0370918C0380918D03BE
:102C400090918E030E945C0583E690E00E948004D0
:102C50008091CD029091CE020E949D0484E590E087
:102C60000E94800460917B0370917C0380917D03BE
:102C700090917E030E945C055D9BFECF8AE08CB93B
:102C800002C00E948A0EECE0CDB7DEB70C94C521DD
:102C90000E944F0D80919D02882339F00E943712C7
:102CA00010929C0210929D02F5CF0E949C038F3FD0
:102CB00089F30E944711EECF1F920F920FB60F9229
:102CC00011242F933F934F935F936F937F938F9331
:102CD0009F93AF93BF93EF93FF938CB1E0919C02CE
:102CE000FF27E65EFD4F80838A3021F080919C02B1
:102CF000813880F0E0919C02FF27E65EFD4F108254
:102D00006AE172E088E991E00E94E41D81E080932D
:102D10009D0205C080919C028F5F80939C02FF9171
:102D2000EF91BF91AF919F918F917F916F915F9143
:102D30004F913F912F910F900FBE0F901F901895BC
:102D4000EF92FF920F931F937B018C0120E030E004
:102D500040E05FE40E94951A88237CF020E030E098
:102D600040E05FE4C801B7010E94F3170E946A1BAC
:102D7000605070408040904804C0C801B7010E9474
:102D80006A1B1F910F91FF90EF900895A0E0B0E0B3
:102D9000ECECF6E10C94A721FC016A0190819230E1
:102DA00008F41BC1DB018C91823080F0943061F417
:102DB000843009F012C19181EB018981981709F4DF
:102DC0000CC1E0E9F1E009C1843011F4FB0105C157
:102DD000823091F4923009F000C1EA01DF0188E00D
:102DE0000D9009928150E1F78181FB019181892346
:102DF000E6018983F601F1C0923041F3628073806D
:102E0000EB018A809B80E480F580068117812C810C
:102E10003D814E815F815301A818B908C501B7FCF7
:102E2000ABC080970CF457C0861497040CF4BEC056
:102E30003401EE24FF2487019181FB0181819817E1
:102E400009F4A6C0992309F49CC02E193F09400B30
:102E5000510B57FDB0C0E60119827B826A82F601F0
:102E60002483358346835783E6012C813D814E813F
:102E70005F8179018A01DA01C9010197A109B109CC
:102E80008F5F9F4FAF4FBF43F8F4E6016A817B81AC
:102E9000A8019701220F331F441F551F6150704036
:102EA00079018A01DA01C9010197A109B1098F5F8E
:102EB0009F4FAF4FBF4360F3E6017B836A83F60108
:102EC000248335834683578383E0D6018C9357FD53
:102ED00039C0F60182C086149704B4F4C0E0D0E093
:102EE000DA01C90181709070A070B0705695479555
:102EF00037952795282B392B4A2B5B2B2196AC161F
:102F0000BD0671F78A0C9B1C681479040CF094CFF1
:102F1000C0E0D0E05401A618B708D801C7018170FD
:102F20009070A070B07016950795F794E794E82A12
:102F3000F92A0A2B1B2B2196AC16BD0671F76A0CD9
:102F40007B1C7ACFDA01C901B695A795979587952D
:102F50002170307040705070282B392B4A2B5B2B1E
:102F6000E6012C833D834E835F838A819B8101969A
:102F70009B838A83F60131C0882799278A199B0988
:102F800050CFE21AF30A040B150BA801970161CF89
:102F9000E60199837B826A822E0D3F1D401F511FDF
:102FA000F60124833583468357838ECF20E030E0BB
:102FB00040E050E041CF81E0E60189837B826A8274
:102FC00050954095309521953F4F4F4F5F4FF601FB
:102FD000248335834683578347CFCF01EEE0CDB7B7
:102FE000DEB70C94C321A0E2B0E0E9EFF7E10C9466
:102FF000AF2169837A838B839C832D833E834F83A8
:10300000588789E0E82EF12CEC0EFD1EB701CE01A9
:1030100001960E94DC1C8E010F5E1F4FB801CE018D
:1030200005960E94DC1C8A8991E089278A8BAE0173
:10303000475E5F4FB801C7010E94C6160E94BA1BC7
:10304000E6E0A0960C94CB21A0E2B0E0EAE2F8E141
:103050000C94AF2169837A838B839C832D833E8379
:103060004F83588799E0E92EF12CEC0EFD1EB70135
:10307000CE0101960E94DC1C8E010F5E1F4FB8012D
:10308000CE0105960E94DC1CAE01475E5F4FB80181
:10309000C7010E94C6160E94BA1BE6E0A0960C94D7
:1030A000CB21A0E2B0E0E7E5F8E10C94A32169832D
:1030B0007A838B839C832D833E834F8358878E0135
:1030C000075F1F4FB801CE0101960E94DC1CF1E1A1
:1030D000EF2EF12CEC0EFD1EB701CE0105960E94DD
:1030E000DC1C8985823078F09989923040F420E0A8
:1030F0009A858A89981321E02A8BB701E9C0843028
:1031000051F4923061F020E09A858A89981321E089
:103110002A87B801DDC0943029F4823041F760E994
:1031200071E0D6C0823079F3923009F32D853E8567
:103130004F8558898D899E89AF89B88D2224332483
:103140002101AA24BB246501EE24FF24870160E04D
:1031500070E00DC06F5F7F4F6032710599F1880F8D
:10316000991FAA1FBB1F569547953795279520FF96
:1031700019C0280E391E4A1E5B1E6624772443019F
:10318000281639064A065B0628F4E1E06E2E712CFB
:10319000812C912CAE0CBF1CC01ED11EA60CB71CDE
:1031A000C81CD91CEE0CFF1C001F111FB7FFD2CF8B
:1031B000E1E06E2E712C812C912CE628F72808294D
:1031C0001929C8CF8B859C852B893C89820F931F39
:1031D00002969C8F8B8F1A8E9A858A89981711F088
:1031E00081E08A8FD7FE17C08B8D9C8DA0FE0CC00E
:1031F000569447943794279420E030E040E050E81C
:10320000222A332A442A552AD694C794B794A794DD
:1032100001969C8F8B8F30E0A31630E0B30630E030
:10322000C30630E4D30618F58B8D9C8D0EC0220C9E
:10323000331C441C551C019720E0A21620E0B20666
:1032400020E0C20620E4D20680F4AA0CBB1CCC1CF1
:10325000DD1C57FEECCF31E0632E712C812C912CBC
:10326000A628B728C828D928E2CF9C8F8B8FD601F3
:10327000C5018F779070A070B07080349105A10562
:10328000B10551F0AD8EBE8ECF8ED8A283E0898F6E
:10329000BE01675E7F4F1CC0A7FCF4CF2114310430
:1032A0004104510479F380E490E0A0E0B0E0A80E7E
:1032B000B91ECA1EDB1E80E8682E8FEF782E8FEFB6
:1032C000882E8FEF982EA620B720C820D920DACFDD
:1032D000CB010E94BA1BE2E1A0960C94BF21A8E1A9
:1032E000B0E0E5E7F9E10C94A92169837A838B8347
:1032F0009C832D833E834F835887B9E08B2E912C7E
:103300008C0E9D1EB401CE0101960E94DC1C8E0124
:103310000F5E1F4FB801CE0105960E94DC1C298567
:10332000223008F46AC03989323008F468C08A85CE
:103330009A8989278A87243009F463C0223009F4E6
:1033400060C0343041F41D861E861F86188A1C8694
:103350001B86B40177C0323009F458C06B857C8578
:103360008B899C89681B790B7C876B872D853E85B3
:103370004F855889ED88FE880F89188D2E153F05D9
:103380004007510740F4220F331F441F551F61505F
:1033900070407C876B87AA24BB24650180E090E0A5
:1033A000A0E0B0E460E070E02E153F054007510753
:1033B00040F0A82AB92ACA2ADB2A2E193F09400B55
:1033C000510BB695A79597958795220F331F441FEC
:1033D000551F6F5F7F4F6F31710531F7D601C50102
:1033E0008F779070A070B07080349105A105B10501
:1033F00089F0AD86BE86CF86D88AB40123C0B801D5
:1034000021C03217D1F760E971E01CC084E08987E0
:10341000B40118C0A7FCEDCF2115310541055105B8
:1034200041F380E490E0A0E0B0E0A80EB91ECA1E0F
:10343000DB1E80E89FEFAFEFBFEFA822B922CA22C0
:10344000DB22D7CFCB010E94BA1BECE068960C942C
:10345000C521A8E1B0E0EFE2FAE10C94AF21698365
:103460007A838B839C832D833E834F83588789E0A7
:10347000E82EF12CEC0EFD1EB701CE0101960E9444
:10348000DC1C8E010F5E1F4FB801CE0105960E9415
:10349000DC1C8985823018F08989823018F421E09B
:1034A00030E008C0B801C7010E947B1D282F3327D8
:1034B00027FD3095C901E6E068960C94CB21A8E180
:1034C000B0E0E5E6FAE10C94AF2169837A838B835F
:1034D0009C832D833E834F83588789E0E82EF12C0F
:1034E000EC0EFD1EB701CE0101960E94DC1C8E0180
:1034F0000F5E1F4FB801CE0105960E94DC1C898526
:10350000823018F42FEF3FEF0BC089898230D0F35F
:10351000B801C7010E947B1D282F332727FD309556
:10352000C901E6E068960C94CB21A8E1B0E0EBE994
:10353000FAE10C94AF2169837A838B839C832D837A
:103540003E834F83588789E0E82EF12CEC0EFD1E58
:10355000B701CE0101960E94DC1C8E010F5E1F4F49
:10356000B801CE0105960E94DC1C8985823018F4D2
:103570002FEF3FEF0BC089898230D0F3B801C7012C
:103580000E947B1D282F332727FD3095C901E6E0D7
:1035900068960C94CB21A8E1B0E0E1EDFAE10C943F
:1035A000AF2169837A838B839C832D833E834F83F2
:1035B000588789E0E82EF12CEC0EFD1EB701CE01F4
:1035C00001960E94DC1C8E010F5E1F4FB801CE01D8
:1035D00005960E94DC1C8985823018F0898982302A
:1035E00018F421E030E008C0B801C7010E947B1D3B
:1035F000282F332727FD3095C901E6E068960C9403
:10360000CB21A8E0B0E0E7E0FBE10C94B2219B0104
:10361000AC0183E089831A8257FD51C02115310521
:103620004105510539F482E08983CE0101960E945B
:10363000BA1B4CC0EEE1F0E0FC83EB838A81882367
:10364000C9F1203010E0310710E0410710E85107C0
:10365000C9F188279927DC01821B930BA40BB50BBA
:103660008D839E83AF83B8872D813E814F8158859E
:10367000203080E0380780E0480780E45807A8F64B
:10368000EB81FC81DA01C901880F991FAA1FBB1FBA
:1036900031979C01AD01803010E0910710E0A10747
:1036A00010E4B10778F3FC83EB838D839E83AF83B3
:1036B000B887BBCF2D833E834F835887D5CF81E01A
:1036C0008A83ACCF60E070E080E09FECE3E0289676
:1036D0000C94CE21ACE0B0E0E0E7FBE10C94B32128
:1036E00069837A838B839C83BE016B5F7F4FCE019E
:1036F00001960E94DC1C8D81823061F0823050F096
:10370000843069F48E81882359F52FEF3FEF4FEF16
:103710005FE72AC020E030E040E050E025C02F8184
:10372000388537FDF7CF2F31310564F78EE190E012
:10373000821B930B29853A854B855C8504C0569581
:103740004795379527958A95D2F78E81882361F022
:1037500050954095309521953F4F4F4F5F4F04C096
:1037600020E030E040E050E8CA01B901E2E02C96E8
:103770000C94CF214F925F926F927F928F929F9283
:10378000AF92BF92DF92EF92FF920F931F9320E0D0
:1037900030E040E050E0FC01E480F58006811781D4
:1037A000D1808081823038F4D801C701A061AF7721
:1037B000B0706FEFD9C0843009F46EC0823009F464
:1037C00071C0E114F1040105110509F46BC0828197
:1037D00093816FEF823896070CF06AC062E87FEF42
:1037E000681B790B6A3171050CF080C047015801E4
:1037F000062E04C0B694A794979487940A94D2F79F
:1038000044245524320181E090E0A0E0B0E004C0FF
:10381000880F991FAA1FBB1F6A95D2F70197A109AC
:10382000B109E822F9220A231B23E114F10401055E
:10383000110529F061E0462E512C612C712C850177
:103840007401E428F52806291729D801C7018F77C4
:103850009070A070B07080349105A105B10509F495
:1038600057C0D801C701CF96A11DB11D60E070E01F
:103870008030E0E09E07E0E0AE07E0E4BE0710F035
:1038800061E070E027E0B695A795979587952A9512
:10389000D1F7AF77B07068C080E090E0A0E0B0E012
:1038A0006FEF62C080E090E0A0E0B0E060E05CC05C
:1038B000803891058CF7BC0161587F4FD801C70152
:1038C0008F779070A070B07080349105A105B1051C
:1038D000A1F08FE390E0A0E0B0E0E80EF91E0A1F2F
:1038E0001B1F17FD28C0D801C701CCCF60E070E0D6
:1038F00080E090E0A0E0B0E0CCCFE7FEF2CF80E443
:1039000090E0A0E0B0E0E80EF91E0A1F1B1FE9CF0F
:10391000E7FC18C080E090E060E0E61660E0F606A4
:1039200060E0060760E4160710F081E090E0BC015B
:10393000D801C701A7CF16950795F794E7946F5F55
:103940007F4FD1CFD801C701805C9F4FAF4FBF4F92
:1039500060E070E08030E0E09E07E0E0AE07E0E489
:10396000BE0708F48FCF8CCF282F392F9A2F9F773F
:10397000842F8078892B962F9795992797958F7705
:10398000482F492B6695852F8078862BD794DD2488
:10399000D7948F77582F5D29CA01B9011F910F91D4
:1039A000FF90EF90DF90BF90AF909F908F907F90AF
:1039B0006F905F904F900895FC01DB012081318171
:1039C0009281492F4F7750E0991F9927991F838142
:1039D000682F660F692B881F8827881FFD01818348
:1039E000662309F049C0211531054105510509F447
:1039F00070C082E89FEFFD0193838283220F331F03
:103A0000441F551F220F331F441F551F220F331F02
:103A1000441F551F220F331F441F551F220F331FF2
:103A2000441F551F220F331F441F551F220F331FE2
:103A3000441F551F83E08C932030F0E03F07F0E0F7
:103A40004F07F0E45F0790F482E89FEF220F331FE7
:103A5000441F551F0197203060E0360760E046079D
:103A600060E4560798F3FD0193838283FD0124836C
:103A700035834683578308956F3F71F1862F9927C9
:103A80008F579040FD019383828383E08C93220FB4
:103A9000331F441F551F220F331F441F551F220F72
:103AA000331F441F551F220F331F441F551F220F62
:103AB000331F441F551F220F331F441F551F220F52
:103AC000331F441F551F5064248335834683578317
:103AD000089582E08C930895211531054105510523
:103AE00019F484E08C93089544FD02C01C92BECF6B
:103AF00081E08C93BBCFEF92FF920F931F93CF93F4
:103B0000DF93FC01DB018081823050F09C91923088
:103B100038F0843041F49430B1F08181882381F40D
:103B200061E070E04BC09430E9F18230A1F0923056
:103B3000A1F36181ED018981681791F0662381F31A
:103B40006FEF7FEF3BC0EB018981682F7727818181
:103B5000681B710933C0923059F560E070E02EC0E7
:103B600022813381ED018A819B818217930734F38F
:103B7000281739079CF0E480F58006811781FD0144
:103B800024813581468157812E153F054007510715
:103B9000A8F2E216F30604071507F8F6662309F003
:103BA000BFCFCECFFB018181882309F0B9CFC8CF29
:103BB000EB018981882309F0B3CFC2CFCB01E6E0C6
:103BC000CDB7DEB70C94CB21FB01DC0101900D9247
:103BD0000020E1F70895FB01DC014150504030F036
:103BE0008D910190801919F40020B9F7881B990B69
:103BF00008950F931F93CF93DF93CDB7DEB76097F0
:103C00000FB6F894DEBF0FBECDBF0F89188D86E0CA
:103C10008E831C830B838FEF9FE798878F83AE0182
:103C2000455E5F4F5A834983698D7A8DCE01039635
:103C30000E942B1E29853A85020F131FF80110825E
:103C400060960FB6F894DEBF0FBECDBFDF91CF9167
:103C50001F910F9108952F923F924F925F926F9212
:103C60007F928F929F92AF92BF92CF92DF92EF920C
:103C7000FF920F931F93CF93DF93CDB7DEB7649777
:103C80000FB6F894DEBF0FBECDBFCC24DD24760185
:103C90001C017C8B6B8B2A01FC01178216828381AD
:103CA00081FD03C08FEF9FEF88C2AA24BB2472C29C
:103CB000A0FE57C28A8980538A30E8F4FA89F0332B
:103CC00041F42D85222329F4A3FC03C080E091E078
:103CD0006FC08AE0ED85E802C0011124FA89F80F6F
:103CE000F053FD87F7FF02C02FE72D87A3FC4CC2DE
:103CF0003D853E8749C2C50188709070A3FE05C00E
:103D0000ED85EE2311F4F1E0FD872A89283624F5AC
:103D100025360CF05BC0233509F480C024358CF4C3
:103D20002B32C1F12C3234F42032C1F1233209F0AC
:103D30000DC23CC03A893D32B1F13E3209F006C2B3
:103D40003AC08A89833609F449C084360CF081C0B0
:103D5000883509F0FBC11BC0EA89E03709F4A3C02C
:103D6000E13744F4EC3669F1EF3671F0E93609F0E9
:103D7000EDC16FC0FA89F53709F49DC0F83739F005
:103D8000F33709F0E3C134C028E0298B94C030E157
:103D9000398B91C080E190E0A82AB92AE0E2F0E0F6
:103DA000AE2ABF2AF1C120E830E00DC080E490E0E7
:103DB000A82AB92AE9C1E8E0F0E0AE2ABF2A1D86A8
:103DC000E3C124E030E0A22AB32ADEC14FE3C42ECF
:103DD0003E8531503E8783E68A8B44C1F201C08024
:103DE000FE85F150FE8722E030E0420E531E3AC1BC
:103DF000F201C080D180892B49F0FD856F2F772794
:103E000067FD7095C6010E940A2119C0F601019054
:103E10000020E9F73197EC19E98B12C0F201C0805C
:103E2000D180892B49F0FD856F2F772767FD70952D
:103E3000C6010E94FF2003C0C6010E94F620898BA4
:103E400022E030E0420E531E3E858989381B3E87B2
:103E500009C1A2FE08C0F20180819181A281B381D3
:103E600024E030E009C0F20180819181AA2797FD0A
:103E7000A095BA2F22E030E0420E531E6C017D0166
:103E8000B7FF0CC082E090E0A82AB92AF094E09431
:103E9000D094C094C11CD11CE11CF11CEFEBFFEFCE
:103EA000AE22BF2221C020E430E0A22AB32A38E7A4
:103EB0003A8B80E1898BA2FE08C0F201808191815A
:103EC000A281B38124E030E007C0F20180819181BA
:103ED000AA27BB2722E030E0420E531E6C017D0171
:103EE0008FEC9FEFA822B92287017601FE0131965F
:103EF000F88BEF87F9896F2E772488249924C801DD
:103F0000B701A40193010E9481216A3024F02A891B
:103F1000620F615201C0605DEF85F8896193F88B93
:103F2000EF87C801B701A40193010E9481217901A3
:103F30008A01211531054105510509F7CC24DD24FD
:103F40007601CE010196CF84C81AC50182739070A4
:103F5000892B19F0FE85F150FE87A6FE09C029893C
:103F6000203111F482E001C081E03E85381B3E879C
:103F700038E0832E912C8A209B20A3FE1BC08D85C8
:103F8000282F332727FD30958C2D992782179307EB
:103F900054F0E7EFFFEFAE22BF2228E0822E912CF3
:103FA0008A209B2007C0FD85FC19FD872E852F1BCD
:103FB0002E8703C03E853C193E87C50180789170ED
:103FC000892B69F48E8506C0B10180E290E00E94E1
:103FD0001521812F182F11501816B4F31E87A1FE3A
:103FE00004C0B1018DE290E00BC0A4FE04C0B10199
:103FF0008BE290E005C0A5FE05C0B10180E290E033
:104000000E941521A6FE10C0B10180E390E00E943D
:1040100015218989803141F4B101EA898E2F9927D0
:1040200087FD90950E941521B0FE0DC08E8506C0BB
:10403000B10180E390E00E941521812F182F1150CB
:104040001816B4F31E87892869F02D8506C0B101C2
:1040500080E390E00E941521212F122F115012169B
:10406000B4F31D8790E8692E712C6A207B20A7FC91
:104070000DC08E8506C0B10180E290E00E9415213E
:10408000812F182F11501816B4F31E87FA89F336B2
:1040900041F4B1018C2D992787FD90950E9415213F
:1040A00045C02A892337B1F446015601198909C050
:1040B000F50181915F01B101992787FD90950E94DB
:1040C00015211150A8F76401F989CF0ED11C2FEFEB
:1040D000298B2CC03A89333519F00F8518891FC0F8
:1040E00046018601B98808C0F8018491B101992779
:1040F0000E9415210F5F1F4FBA94FFEFBF16A1F763
:1041000064012989C20ED11CF98B10C0F80182917B
:104110008F01B101992787FD90950E941521CE014D
:1041200001960817190791F7188B0F876728B1F0C8
:104130008E8506C0B10180E290E00E941521812F9A
:10414000182F11501816B4F31E8708C0B101FA8950
:104150008F2F992787FD90950E941521AA24BB24B3
:1041600013C02A89253241F43AE0398B1E861D8618
:1041700081E0A82EB12C08C0B101EA898E2F9927C1
:1041800087FD90950E9415212B893C892F5F3F4F19
:104190003C8B2B8BF101838183FF04C0EB89FC896D
:1041A000F49103C0EB89FC89F081FA8B2A892223E0
:1041B00009F07ECDF1018681978164960FB6F8945F
:1041C000DEBF0FBECDBFDF91CF911F910F91FF904A
:1041D000EF90DF90CF90BF90AF909F908F907F90A7
:1041E0006F905F904F903F902F900895FC01059045
:1041F0000020E9F7809590958E0F9F1F0895FC0190
:104200000590615070400110D8F7809590958E0F01
:104210009F1F0895FC016150704001900110D8F774
:10422000809590958E0F9F1F08950F931F93CF93A6
:10423000DF938C01EB018B81992781FF1BC082FFEB
:104240000DC02E813F818C819D812817390764F430
:10425000E881F9810193F983E88306C0E885F9854F
:10426000802F0995892B31F48E819F8101969F8340
:104270008E8302C00FEF1FEFC801DF91CF911F9116
:104280000F910895629FD001739FF001829FE00D0E
:10429000F11D649FE00DF11D929FF00D839FF00DC5
:1042A000749FF00D659FF00D9927729FB00DE11D71
:1042B000F91F639FB00DE11DF91FBD01CF0111244E
:1042C0000895991B79E004C0991F961708F0961B72
:1042D000881F7A95C9F780950895AA1BBB1B51E1E9
:1042E00007C0AA1FBB1FA617B70710F0A61BB70B66
:1042F000881F991F5A95A9F780959095BC01CD010B
:104300000895A1E21A2EAA1BBB1BFD010DC0AA1F16
:10431000BB1FEE1FFF1FA217B307E407F50720F02E
:10432000A21BB30BE40BF50B661F771F881F991FA9
:104330001A9469F760957095809590959B01AC01F2
:10434000BD01CF0108952F923F924F925F926F92DD
:104350007F928F929F92AF92BF92CF92DF92EF9215
:10436000FF920F931F93CF93DF93CDB7DEB7CA1B96
:10437000DB0B0FB6F894DEBF0FBECDBF09942A88C1
:10438000398848885F846E847D848C849B84AA8469
:10439000B984C884DF80EE80FD800C811B81AA81F6
:1043A000B981CE0FD11D0FB6F894DEBF0FBECDBFC1
:0443B000ED0108957E
:1043B40050623A20004672657175656E7469653A9B
:1043C4000050756C73627265656474653A00537766
:1043D4006565702D6672657175656E7469652031E9
:1043E4003A0053776565702D6672657175656E74F4
:1043F400696520323A0053776565702D64656C6198
:104404007920696E20B5533A0053776565702D7332
:1044140074657020696E20487A3A0053746172742E
:10442400207377656570206E6F773F00200020470A
:10443400756C6C696E627572737469002020496EC4
:10444400697469616C6973696E672E2E2E005768F2
:104454006F00546F3A202020004D616477697A61BF
:1044640072645F6D6178636F756E74203D2025758D
:104474000A004D616477697A6172645F6F637231B7
:1044840062203D2025750A004D616477697A617266
:10449400645F7072657363616C6572616C657220D0
:1044A4003D2025750A00030609430205080001049E
:1044B400072E75644D4500002C14543031323334CA
:1044C40035363738394142434445463C50726F7360
:1044D4002020202020323030392D30342D32340049
:0844E4000000000000000000D0
:00000001FF
